:100000000C9434000C9451000C9451000C94510049
:100010000C9451000C9451000C9451000C9451001C
:100020000C9451000C9451000C9451000C9451000C
:100030000C9451000C9451000C9451000C945100FC
:100040000C9451000C9451000C9451000C945100EC
:100050000C9451000C9451000C9451000C945100DC
:100060000C9451000C94510011241FBECFEFD8E026
:10007000DEBFCDBF11E0A0E0B1E0E4EFF9E002C0E7
:1000800005900D92A031B107D9F721E0A0E1B1E0D0
:1000900001C01D92A431B207E1F70E9421020C9425
:1000A000F8040C9400005C985C9A5C980895EF92B8
:1000B000FF920F931F93CF93DF938C01C0E0D0E0AA
:1000C000EE24E394F12CF8012081C7010C2E01C02D
:1000D000880F0A94EAF7822311F02A9A01C02A981D
:1000E0000E9453002196C330D10569F7DF91CF916B
:1000F0001F910F91FF90EF900895FC018081232BB9
:1001000011F0846001C08B7F80838081452B11F0CA
:10011000826001C08D7F80838081672B11F08160B8
:1001200001C08E7F80830895FC0110820C945700DB
:10013000229A549A3A983898399808951F93CF93F1
:10014000DF93EC0181E08883CE010E9457002FE706
:100150008BEF96E0215080409040E1F700C0000016
:1001600012E01883CE010E9457002FE78BEF96E034
:10017000215080409040E1F700C0000084E0888377
:10018000CE010E9457002FE78BEF96E02150804070
:100190009040E1F700C000001883CE010E94570094
:1001A0002FE78BEF96E0215080409040E1F700C0B0
:1001B0000000CE01DF91CF911F910C9494006FEF5E
:1001C00085E00E94BE0164EB86E00E94BE015F9A5A
:1001D0002898299A2B98089564EB85E00E94BE0127
:1001E0006FEF86E00E94BE015F98289A2B9A2998AB
:1001F00008956FEF85E00E94BE016BE986E00E94E2
:10020000BE015F9A28982B9A299808956BE985E09A
:100210000E94BE016FEF86E00E94BE015F98289A9F
:100220002B9A299808956BE985E00E94BE016BE93D
:1002300086E00E94BE01289829985F9A2B9A08951B
:10024000289829985F982B98089588EF87B967E6D2
:1002500070E080E090E00E940B021AB814B880E6CB
:100260008AB9579A0E94B3018BE084B96BE985E0A3
:100270000E94BE016BE986E00C94BE016FEF85E041
:100280000E94BE0160E086E00E94BE015F9A28984D
:100290002B9A2998089510927C0080E480937C002A
:1002A00087E080937A0080917A00806880937A005A
:1002B00080917A00806480937A0080917A0086FD34
:1002C000FCCF8091780090917900089590917C0006
:1002D000987F90937C0090917C00892B80937C0088
:1002E00080917A00806480937A0080917A0086FD04
:1002F000FCCF80917800909179000895CF92DF92A1
:10030000EF92FF921F93CF93DF93182FD62FC0E069
:10031000C12CD12C7601CD1749F0812F0E946601A6
:10032000C80ED91EE11CF11CCF5FF5CFC701B60185
:100330000E9449036B017C016C2F70E080E090E02B
:100340000E9449039B01AC01C701B6010E94A802AB
:100350000E941A03CB01DF91CF911F91FF90EF9084
:10036000DF90CF900895F89415BC85B5836085BD66
:1003700014BC84B5836084BD789408958630A1F45C
:1003800084B5611104C08F7384BD5E9808956F3F7A
:1003900021F48F7384BD5E9A0895806884BD84B50E
:1003A0008F7B84BD67BD0895853099F484B5611154
:1003B00004C08F7C84BD5D9808956F3F21F48F7CCD
:1003C00084BD5D9A0895806284BD84B58F7E84BDAE
:1003D00068BD08958091C00087FD07C08091C0006E
:1003E00087FF04C08091C6000895089580E00895B5
:1003F0009091C00095FFFCCF8093C6000895CF93E5
:10040000DF93EC018991882319F00E94F801FACF5B
:10041000DF91CF9108950F931F93072F182F292F46
:1004200033270093C5006093C40088E18093C10026
:100430008EE08093C20086E091E01F910F910C94B2
:10044000FF010E942501389839983A980E944B0183
:100450000E94980081E090E00E94D703EC010E9486
:1004600094006880E12CF12C64E180E00E947E0120
:100470008C0164E181E00E947E015C0164E182E024
:100480000E947E014C01CC24C394712C0D3281E07A
:10049000180708F4C12C41E050E089ECA816B1041B
:1004A00010F440E050E061E070E08FE5881681E0F4
:1004B000980610F460E070E02C2D372DCE010E94DC
:1004C0007D00D8806D1421F0CE010E945700D880A5
:1004D0008FE5881681E0980650F089ECA816B104E3
:1004E00088F10D32114008F10E94130120C089ECFF
:1004F000A816B10438F00D3281E0180798F40E9474
:10050000130119C00D3281E0180748F4E114F10419
:1005100019F00E94DF000FC00E94EC000CC00E9486
:10052000DF000CC00E94F90009C00E940601EC2CFB
:10053000F72C6D2C99CF0D321140D8F3EE24E394B3
:10054000F12CF7CF0D32114078F60E94EC00EFCF7E
:100550000E94BC020C949D030E94960358F00E94D6
:100560008F0340F029F45F3F29F00C94860351116A
:100570000C94D1030C948C030E94AE0368F399236E
:10058000B1F3552391F3951B550BBB27AA2762178F
:100590007307840738F09F5F5F4F220F331F441F9C
:1005A000AA1FA9F335D00E2E3AF0E0E832D09150D0
:1005B0005040E695001CCAF72BD0FE2F29D0660FBD
:1005C000771F881FBB1F261737074807AB07B0E800
:1005D00009F0BB0B802DBF01FF2793585F4F3AF006
:1005E0009E3F510578F00C9486030C94D1035F3F35
:1005F000E4F3983ED4F3869577956795B795F7958C
:100600009F5FC9F7880F911D9695879597F9089573
:10061000E1E0660F771F881FBB1F6217730784070F
:10062000BA0720F0621B730B840BBA0BEE1F88F71E
:10063000E09508950E94B60388F09F5798F0B92F6F
:100640009927B751B0F0E1F0660F771F881F991F07
:100650001AF0BA95C9F714C0B13091F00E94D003D6
:10066000B1E008950C94D003672F782F8827B85FE6
:1006700039F0B93FCCF3869577956795B395D9F75F
:100680003EF490958095709561957F4F8F4F9F4F69
:100690000895E89409C097FB3EF490958095709575
:1006A00061957F4F8F4F9F4F9923A9F0F92F96E9BE
:1006B000BB279395F695879577956795B795F11133
:1006C000F8CFFAF4BB0F11F460FF1BC06F5F7F4FD0
:1006D0008F4F9F4F16C0882311F096E911C07723E2
:1006E00021F09EE8872F762F05C0662371F096E8EB
:1006F000862F70E060E02AF09A95660F771F881FBA
:10070000DAF7880F9695879597F9089597F99F6777
:1007100080E870E060E008959FEF80EC0895002489
:100720000A941616170618060906089500240A9456
:1007300012161306140605060895092E0394000CDC
:1007400011F4882352F0BB0F40F4BF2B11F460FF6B
:1007500004C06F5F7F4F8F4F9F4F089557FD905894
:10076000440F551F59F05F3F71F04795880F97FB75
:10077000991F61F09F3F79F087950895121613062F
:100780001406551FF2CF4695F1DF08C0161617065E
:100790001806991FF1CF8695710561050894089593
:1007A000E894BB2766277727CB0197F908950F9325
:1007B0001F93CF93DF938230910510F482E090E095
:1007C000E0911201F091130120E030E0A0E0B0E0F0
:1007D000309719F1408151810281138148175907DF
:1007E000C8F08417950769F4109731F012960C93AE
:1007F000129713961C9327C00093120110931301B4
:1008000022C02115310519F04217530718F49A0137
:10081000BD01EF01DF01F801DBCF21153105F9F052
:10082000281B390B2430310580F48A819B816115A6
:10083000710521F0FB019383828304C0909313011F
:1008400080931201FE01329644C0FE01E20FF31FB5
:100850008193919322503109398328833AC02091A2
:10086000100130911101232B41F4209102013091AC
:100870000301309311012093100120910001309168
:1008800001012115310541F42DB73EB74091040116
:1008900050910501241B350BE0911001F0911101DD
:1008A000E217F307A0F42E1B3F0B2817390778F047
:1008B000AC014E5F5F4F2417350748F04E0F5F1FA6
:1008C00050931101409310018193919302C0E0E095
:1008D000F0E0CF01DF91CF911F910F910895CF9359
:1008E000DF93009709F481C0FC01329713821282D2
:1008F000A0911201B0911301109781F420813181F0
:10090000820F931F20911001309111012817390790
:1009100051F5F0931101E093100167C0ED0120E063
:1009200030E0CE17DF0740F44A815B819E0141151C
:100930005105F1F0EA01F5CFD383C28340815181A3
:10094000840F951FC817D90759F488819981840F9E
:10095000951F0296918380838A819B8193838283F2
:100960002115310529F4F0931301E09312013DC0E4
:10097000E901FB83EA8349915991C40FD51FEC1714
:10098000FD0761F480819181840F951F0296E90132
:1009900099838883828193819B838A83E0E0F0E05E
:1009A00012968D919C911397009719F0FD01DC012F
:1009B000F7CF8D919C9111979D012E5F3F4F820F34
:1009C000931F20911001309111012817390769F404
:1009D000309729F4109213011092120102C0138271
:1009E0001282B0931101A0931001DF91CF9108956D
:0409F000F894FFCFA9
:1009F4000000140120003C285E5F5E293E0A0000CE
:00000001FF
