:100000000C9434000C9451000C9451000C94510049
:100010000C9451000C9451000C9451000C9451001C
:100020000C9451000C9451000C9451000C94A100BC
:100030000C9451000C9451000C9451000C945100FC
:100040000C9451000C9451000C9451000C945100EC
:100050000C9451000C9451000C9451000C945100DC
:100060000C9451000C94510011241FBECFEFD8E026
:10007000DEBFCDBF12E0A0E0B1E0E6E7F4E102C0F0
:1000800005900D92A03AB107D9F722E0A0EAB2E0BC
:1000900001C01D92AB3BB207E1F70E94EA020C944B
:1000A000390A0C9400000F931F93CF93DF9364E100
:1000B00080E00E947E028C0164E181E00E947E0269
:1000C000EC0164E182E00E947E022091AD02309159
:1000D000AE02A801421B530B9A01233E5FEF350786
:1000E00024F12E3131050CF52091AF023091B00290
:1000F000AE01421B530B9A01233E5FEF3507ACF074
:100100002E31310594F42091B1023091B202821B5C
:10011000930B833E2FEF920744F04E9734F4DF9118
:10012000CF911F910F910C94F0010E940A024FEFA2
:1001300051EE84E0415050408040E1F700C00000A3
:10014000B6CF1F920F920FB60F9211242F933F93A9
:100150005F936F937F938F939F93AF93BF93209100
:10016000AB023091AC022F5F3F4F3093AC02209333
:10017000AB02C90161E772E00E94EB04892B49F4EC
:100180008091A9029091AA0201969093AA0280936D
:10019000A902C9016AE678E10E94EB04892B19F4EF
:1001A00081E08093A802C90162E17AE70E94EB0432
:1001B000892B19F481E08093A7022432344F39F45B
:1001C0001092AC021092AB0281E08093A602809163
:1001D000A0029091A1028432944F89F41092A1025E
:1001E0001092A0028091A202882349F08091A3027C
:1001F0009091A40201969093A4028093A302BF91D0
:10020000AF919F918F917F916F915F913F912F91CE
:100210000F900FBE0F901F901895F894E1E8F0E052
:10022000808181608083808188608083EFE6F0E058
:100230008081826080838FEF90E09093890080932B
:100240008800789408955C985C9A5C980895EF9281
:10025000FF920F931F93CF93DF938C01C0E0D0E008
:10026000EE24E394F12CF8012081C7010C2E01C08B
:10027000880F0A94EAF7822311F02A9A01C02A987B
:100280000E9423012196C330D10569F7DF91CF91F8
:100290001F910F91FF90EF900895FC018081232B17
:1002A00011F0846001C08B7F80838081452B11F029
:1002B000826001C08D7F80838081672B11F0816017
:1002C00001C08E7F80830895FC0110820C94270169
:1002D000229A549A3A983898399808951F93CF9350
:1002E000DF93EC0181E08883CE010E9427012FE794
:1002F0008BEF96E0215080409040E1F700C0000075
:1003000012E01883CE010E9427012FE78BEF96E0C1
:10031000215080409040E1F700C0000084E08883D5
:10032000CE010E9427012FE78BEF96E021508040FD
:100330009040E1F700C000001883CE010E94270121
:100340002FE78BEF96E0215080409040E1F700C00E
:100350000000CE01DF91CF911F910C9464016FEFEB
:1003600085E00E94BE0264EB86E00E94BE025F9AB6
:100370002898299A2B98089564EB85E00E94BE0284
:100380006FEF86E00E94BE025F98289A2B9A299808
:1003900008956BE985E00E94BE0260E086E00E945D
:1003A000BE025F9A28982B9A2998089560E085E00C
:1003B0000E94BE026BE986E00E94BE025F98289A06
:1003C0002B9A299808956BE985E00E94BE026BE99B
:1003D00086E00E94BE02289829985F9A2B9A089579
:1003E000289829985F982B98089587B1887F87B9B6
:1003F0001AB814B880E68AB9579A0E94B30284B139
:100400008B6084B96BE985E00E94BE026BE986E0EF
:100410000C94BE026FEF85E00E94BE0260E086E0B1
:100420000E94BE025F9A28982B9A2998089580917D
:10043000C00087FF03C08091C600089580E0089542
:100440009091C00095FFFCCF8093C6000895CF9394
:10045000DF93EC018991882319F00E942002FACFE2
:10046000DF91CF9108950F931F93072F182F292FF6
:1004700033270093C5006093C40088E18093C100D6
:100480008EE08093C20088E091E01F910F910C9460
:10049000270210927C0080E480937C0080917A0097
:1004A000876080937A0080917A00806880937A00D8
:1004B00080917A00806480937A0080917A0086FD32
:1004C000FCCF8091780090917900089590917C0004
:1004D000987F90937C0090917C00892B80937C0086
:1004E00080917A00806480937A0080917A0086FD02
:1004F000FCCF80917800909179000895CF92DF929F
:10050000EF92FF921F93CF93DF93182FD62FC0E067
:10051000C12CD12C7601CD1749F0812F0E946602A3
:10052000C80ED91EE11CF11CCF5FF5CFC701B60183
:100530000E94A0056B017C016C2F70E080E090E0D0
:100540000E94A0059B01AC01C701B6010E94FF04F7
:100550000E947105CB01DF91CF911F91FF90EF9029
:10056000DF90CF900895F89415BC85B5836085BD64
:1005700014BC84B5836084BD789408958630A1F45A
:1005800084B5611104C08F7384BD5E9808956F3F78
:1005900021F48F7384BD5E9A0895806884BD84B50C
:1005A0008F7B84BD67BD0895853099F484B5611152
:1005B00004C08F7C84BD5D9808956F3F21F48F7CCB
:1005C00084BD5D9A0895806284BD84B58F7E84BDAC
:1005D00068BD08952F923F924F925F926F927F92E3
:1005E0008F929F92AF92BF92CF92DF92EF92FF9243
:1005F0000F931F93CF93DF93CDB7DEB7E3970FB67B
:10060000F894DEBF0FBECDBF1092A4021092A302D9
:100610001092A2020E940D010E94F50167E670E0AF
:1006200080E090E00E943302389839983A980E940E
:1006300049020E94680181E090E00E942E067C0140
:100640000E946401F70130801BAA412C512C6624C2
:100650006394712C00E010E00E941702282E64E1E0
:1006600080E00E947E026C0164E181E00E947E02D3
:100670004C0164E182E00E947E025C0121E030E0F6
:10068000FDE2CF16F1E0DF0610F420E030E041E0BB
:1006900050E08DE2881681E0980610F440E050E0CA
:1006A00061E070E09FE5A91691E0B90610F460E002
:1006B00070E0C7010E944D01E3E52E121CC0FFE56A
:1006C000AF16F1E0BF0678F12DE2821621E0920626
:1006D00050F18DE2C81681E0D80628F19BA9933528
:1006E000F1F182E191E00E94270281E08093A20271
:1006F000E3E5EBAB34C0F0E52F1207C02BA92035A2
:1007000009F4CDC0233579F4CDC084E5281204C0A6
:100710009BA9933541F4C9C0E8E42E1204C0FBA99B
:10072000F43509F4C5C02BA9211119C08DE2881632
:1007300081E0980650F09DE2C91691E0D90628F0B4
:10074000EFE5AE16E1E0BE0650F48091A8028823E2
:1007500031F085E591E00E9427021092A802F7018E
:100760002080321429F0C7010E942701F701208060
:10077000FBA9F33509F059C02DE2821621E092065B
:1007800048F00E94E3018FE5A81681E0B80608F062
:1007900097C019C09DE2C91691E0D90618F00E94D1
:1007A000C90117C0EFE5AE16E1E0BE0618F00E94E1
:1007B000D6018BC04114510419F00E94AF017BC0D7
:1007C0000E94BC0178C0EDE2CE16E1E0DE0608F43E
:1007D00072C0612C712C00E010E044244394512C31
:1007E0008091A602811102C0322C36CF8091010186
:1007F0008F93809100018F93E6E7F2E0FF93EF93F0
:1008000081E090E08C0F9D1F9F938F930E944F0774
:10081000CE0101960E9427021092A6020F900F901F
:100820000F900F900F900F90DFCF9BA99035C9F4D8
:100830008091A50291E0811190E09093A502811131
:10084000AFC00E94F001C7010E946E018091A60214
:10085000882351F280E992E00E9427021092A602BA
:10086000C3CFEBA9E43509F0BFCFD092AE02C0925E
:10087000AD029092B0028092AF02B092B202A0920A
:10088000B1020E940A028091A702882309F4ACCF2A
:1008900087E992E00E9427021092A702A5CFF3E514
:1008A000FBAB5DCF20E52BAB5ACF84E58BAB57CFAD
:1008B00098E49BAB54CF612C712C00E010E090CFFA
:1008C000FDE2CF16F1E0DF0638F4612C712C00E078
:1008D00010E0412C512C84CF8091A9029091AA0262
:1008E0000115110509F48C01801B910B069708F482
:1008F00074CF6114710409F070CF80910001909160
:10090000010101969093010180930001029721F467
:1009100088E791E00E9427028091000190910101F7
:10092000039721F48EEA91E00E9427028091000152
:1009300090910101049781F58091A4028F93809199
:10094000A3028F9389EE91E09F938F938E010F5FA7
:100950001F4F1F930F930E944F07C8010E94270249
:100960000E94F001FFEF23E284EFF150204080402D
:10097000E1F700C0000098E288E10FB6F894A8956E
:10098000809360000FBE909360000F900F900F90C7
:100990000F900F900F90FFCF66246394712C1DCFA2
:1009A00080E090E0E3960FB6F894DEBF0FBECDBFB7
:1009B000DF91CF911F910F91FF90EF90DF90CF903B
:1009C000BF90AF909F908F907F906F905F904F906F
:1009D0003F902F900895AA1BBB1B51E107C0AA1F8F
:1009E000BB1FA617B70710F0A61BB70B881F991FD0
:1009F0005A95A9F780959095BC01CD0108950E9464
:100A000013050C94F4050E94ED0558F00E94E605CC
:100A100040F029F45F3F29F00C94DD0551110C944E
:100A200028060C94E3050E94050668F39923B1F3A8
:100A3000552391F3951B550BBB27AA276217730704
:100A4000840738F09F5F5F4F220F331F441FAA1F98
:100A5000A9F335D00E2E3AF0E0E832D09150504054
:100A6000E695001CCAF72BD0FE2F29D0660F771F02
:100A7000881FBB1F261737074807AB07B0E809F0E8
:100A8000BB0B802DBF01FF2793585F4F3AF09E3F6D
:100A9000510578F00C94DD050C9428065F3FE4F3D3
:100AA000983ED4F3869577956795B795F7959F5FB0
:100AB000C9F7880F911D9695879597F90895E1E0FC
:100AC000660F771F881FBB1F621773078407BA075B
:100AD00020F0621B730B840BBA0BEE1F88F7E095B6
:100AE00008950E940D0688F09F5798F0B92F992716
:100AF000B751B0F0E1F0660F771F881F991F1AF009
:100B0000BA95C9F714C0B13091F00E942706B1E040
:100B100008950C942706672F782F8827B85F39F03F
:100B2000B93FCCF3869577956795B395D9F73EF4A1
:100B300090958095709561957F4F8F4F9F4F089549
:100B4000E89409C097FB3EF4909580957095619567
:100B50007F4F8F4F9F4F9923A9F0F92F96E9BB271D
:100B60009395F695879577956795B795F111F8CF99
:100B7000FAF4BB0F11F460FF1BC06F5F7F4F8F4F04
:100B80009F4F16C0882311F096E911C0772321F0FA
:100B90009EE8872F762F05C0662371F096E8862F92
:100BA00070E060E02AF09A95660F771F881FDAF7E9
:100BB000880F9695879597F9089597F99F6780E82C
:100BC00070E060E008959FEF80EC089500240A949F
:100BD0001616170618060906089500240A94121618
:100BE0001306140605060895092E0394000C11F44B
:100BF000882352F0BB0F40F4BF2B11F460FF04C0F8
:100C00006F5F7F4F8F4F9F4F089557FD9058440F50
:100C1000551F59F05F3F71F04795880F97FB991F5B
:100C200061F09F3F79F08795089512161306140618
:100C3000551FF2CF4695F1DF08C0161617061806A5
:100C4000991FF1CF86957105610508940895E89480
:100C5000BB2766277727CB0197F908950F931F933A
:100C6000CF93DF938230910510F482E090E0E09121
:100C7000B902F091BA0220E030E0A0E0B0E0309795
:100C800019F1408151810281138148175907C8F039
:100C90008417950769F4109731F012960C93129708
:100CA00013961C9327C00093B9021093BA0222C076
:100CB0002115310519F04217530718F49A01BD01A7
:100CC000EF01DF01F801DBCF21153105F9F0281B19
:100CD000390B2430310580F48A819B8161157105BF
:100CE00021F0FB019383828304C09093BA02809326
:100CF000B902FE01329644C0FE01E20FF31F819358
:100D0000919322503109398328833AC02091B70248
:100D10003091B802232B41F4209104013091050158
:100D20003093B8022093B702209102013091030161
:100D30002115310541F42DB73EB740910601509180
:100D40000701241B350BE091B702F091B802E217BE
:100D5000F307A0F42E1B3F0B2817390778F0AC01DE
:100D60004E5F5F4F2417350748F04E0F5F1F5093BB
:100D7000B8024093B7028193919302C0E0E0F0E0A3
:100D8000CF01DF91CF911F910F910895CF93DF9302
:100D9000009709F481C0FC01329713821282A0915E
:100DA000B902B091BA02109781F420813181820F8B
:100DB000931F2091B7023091B8022817390751F5D7
:100DC000F093B802E093B70267C0ED0120E030E095
:100DD000CE17DF0740F44A815B819E014115510522
:100DE000F1F0EA01F5CFD383C28340815181840FB2
:100DF000951FC817D90759F488819981840F951FC9
:100E00000296918380838A819B81938382832115BB
:100E1000310529F4F093BA02E093B9023DC0E9012B
:100E2000FB83EA8349915991C40FD51FEC17FD0745
:100E300061F480819181840F951F0296E901998365
:100E40008883828193819B838A83E0E0F0E012961D
:100E50008D919C911397009719F0FD01DC01F7CF5C
:100E60008D919C9111979D012E5F3F4F820F931F93
:100E70002091B7023091B8022817390769F43097EA
:100E800029F41092BA021092B90202C0138212829F
:100E9000B093B802A093B702DF91CF910895AEE06E
:100EA000B0E0E5E5F7E00C94100A0D891E8986E0B4
:100EB0008C831A8309838FEF9FE79E838D83AE0116
:100EC000475E5F4F6F89788DCE0101960E94710752
:100ED000EF81F885E00FF11F10822E96E4E00C946C
:100EE0002C0AABE0B0E0E7E7F7E00C94020A6C01F3
:100EF0007B018A01FC0117821682838181FFCCC1AC
:100F0000CE0101963C01F6019381F70193FD859195
:100F100093FF81917F01882309F4BAC1853239F4A6
:100F200093FD859193FF81917F01853229F4B6016C
:100F300090E00E946809E7CF912C212C312CFFE131
:100F4000F315D8F08B3279F038F4803279F08332AF
:100F5000A1F4232D20611DC08D3261F0803369F42E
:100F6000232D216016C0832D8260382EE32DE4608E
:100F70003E2E2AC0F32DF8601DC037FC2DC020ED99
:100F8000280F2A3040F08E32B9F436FC81C1232D6F
:100F90002064322E19C036FE06C08AE0989E200DCD
:100FA0001124922E11C0EAE02E9E200D1124222E33
:100FB000F32DF0623F2E08C08C3621F4832D80681B
:100FC000382E02C0883641F4F70193FD859193FFD6
:100FD00081917F018111B3CF982F9F7D95549330DC
:100FE00028F40C5F1F4F9FE399830DC0833631F0C7
:100FF000833771F0833509F059C021C0F801808131
:1010000089830E5F1F4F88248394912C530113C052
:101010002801F2E04F0E511CF801A080B18036FE8D
:1010200003C0692D70E002C06FEF7FEFC5010E9421
:101030005D094C018201F32DFF773F2E16C0280178
:1010400022E0420E511CF801A080B18036FE03C0A0
:10105000692D70E002C06FEF7FEFC5010E94520959
:101060004C01F32DF0683F2E820133FC1BC0822D12
:1010700090E088169906B0F4B60180E290E00E94F4
:1010800068092A94F4CFF50137FC859137FE8191E8
:101090005F01B60190E00E94680921102A9421E0C6
:1010A000821A91088114910471F7E8C0843611F016
:1010B000893641F5F80137FE07C060817181828170
:1010C00093810C5F1F4F08C060817181072E000C57
:1010D000880B990B0E5F1F4FF32DFF763F2E97FF66
:1010E00009C090958095709561957F4F8F4F9F4F68
:1010F000F0683F2E2AE030E0A3010E94A409882E68
:10110000861845C0853731F4232D2F7EB22E2AE074
:1011100030E025C0932D997FB92E8F36C1F018F499
:10112000883579F0B5C0803719F0883721F0B0C024
:10113000E92FE061BE2EB4FE0DC0FB2DF460BF2E82
:1011400009C034FE0AC0292F2660B22E06C028E04E
:1011500030E005C020E130E002C020E132E0F801DB
:10116000B7FE07C060817181828193810C5F1F4F40
:1011700006C06081718180E090E00E5F1F4FA30187
:101180000E94A409882E8618FB2DFF773F2E36FE7D
:101190000DC0232D2E7FA22E891458F434FE0BC0CF
:1011A00032FC09C0832D8E7EA82E05C0B82CA32C3E
:1011B00003C0B82C01C0B92CA4FE0FC0FE01E80D7D
:1011C000F11D8081803321F49A2D997EA92E09C0CA
:1011D000A2FE06C0B394B39404C08A2D867809F0A9
:1011E000B394A3FC11C0A0FE06C0B21488F4280C6E
:1011F000922C9B180EC0B21460F4B60180E290E00D
:101200000E946809B394F7CFB21418F42B1802C0E7
:10121000982C212CA4FE10C0B60180E390E00E941F
:101220006809A2FE17C0A1FC03C088E790E002C0D5
:1012300088E590E0B6010CC08A2D867859F0A1FEB1
:1012400002C08BE201C080E2A7FC8DE2B60190E013
:101250000E946809891438F4B60180E390E00E9486
:1012600068099A94F7CF8A94F301E80DF11D808103
:10127000B60190E00E9468098110F5CF222009F4A0
:1012800042CEB60180E290E00E9468092A94F6CF2F
:10129000F6018681978102C08FEF9FEF2B96E2E1E6
:1012A0000C941E0AFC010590615070400110D8F7A3
:1012B000809590958E0F9F1F0895FC01615070409E
:1012C00001900110D8F7809590958E0F9F1F08957B
:1012D0000F931F93CF93DF93FB01238121FD03C065
:1012E0008FEF9FEF2CC022FF16C0468157812481CB
:1012F00035814217530744F4A081B1819D012F5FCE
:101300003F4F318320838C93268137812F5F3F4F5E
:101310003783268314C08B01EC01FB010084F18527
:10132000E02D0995892BE1F6D80116968D919C91B7
:101330001797019617969C938E931697CE01DF917F
:10134000CF911F910F910895FA01AA27283051F1EA
:10135000203181F1E8946F936E7F6E5F7F4F8F4FE6
:101360009F4FAF4FB1E03ED0B4E03CD0670F781F45
:10137000891F9A1FA11D680F791F8A1F911DA11D2A
:101380006A0F711D811D911DA11D20D009F4689463
:101390003F912AE0269F11243019305D3193DEF60B
:1013A000CF010895462F4770405D4193B3E00FD0C1
:1013B000C9F7F6CF462F4F70405D4A3318F0495DAC
:1013C00031FD4052419302D0A9F7EACFB4E0A6958F
:1013D0009795879577956795BA95C9F700976105B1
:1013E000710508959B01AC010A2E06945795479507
:1013F00037952795BA95C9F7620F731F841F951FFC
:10140000A01D08952F923F924F925F926F927F920C
:101410008F929F92AF92BF92CF92DF92EF92FF9204
:101420000F931F93CF93DF93CDB7DEB7CA1BDB0BB0
:101430000FB6F894DEBF0FBECDBF09942A88398855
:1014400048885F846E847D848C849B84AA84B9845C
:10145000C884DF80EE80FD800C811B81AA81B98168
:10146000CE0FD11D0FB6F894DEBF0FBECDBFED017C
:061470000895F894FFCF7F
:1014760001000000BB0220003C285E5F5E293E0A98
:10148600000048657265204920616D206F6E6365B6
:10149600206D6F72652C20676F696E6720646F77A9
:1014A6006E20746865206F6E6C7920726F756E643D
:1014B60020492776652065766572206B6E6F776E9C
:1014C6002E2E2E0A0048657920796F752C20796FAB
:1014D60075206B6E6F77207768617420746F206457
:1014E6006F2E203A2D290A00594541482C20646F59
:1014F6006E65206669727374206C61702C20666557
:10150600656C69672077656C6C2C20676F696E6700
:1015160020666F72206C617020322F330A005945A5
:10152600414820594541482C20646F6E6520326E33
:1015360064206C61702C206665656C696E6720702E
:10154600726F75642C20676F696E6720666F7220F4
:101556006C617020332F330A002046696E616C6C13
:10156600792066696E6973686564202C2049742742
:1015760073206F76657220616E6420646F6E6520DD
:101586006E6F772C20616674657220232564207344
:1015960065636F6E64732E205468616E6B7320668C
:1015A6006F7220776F726B696E6720776974682037
:1015B6006D6521203A2D2920492077696C6C2072AF
:1015C60065736574206D7973656C6620696E203568
:1015D600207365636F6E64732E2054616B652063A0
:1015E600617265210A0043757272656E746C7920AA
:1015F6004920676F20726F756E64202325640A0088
:1016060050617573650A006C616C616C612E0A002D
:00000001FF
