:100000000C9434000C9451000C9451000C94510049
:100010000C9451000C9451000C9451000C9451001C
:100020000C9451000C9451000C9451000C9453000A
:100030000C9451000C9451000C9451000C945100FC
:100040000C9451000C9451000C9451000C945100EC
:100050000C9451000C9451000C9451000C945100DC
:100060000C9451000C94510011241FBECFEFD8E026
:10007000DEBFCDBF12E0A0E0B1E0E0EEF3E102C0F0
:1000800005900D92A03AB107D9F722E0A0EAB2E0BC
:1000900001C01D92A93BB207E1F70E949E020C9499
:1000A000EE090C9400001F920F920FB60F921124CC
:1000B0002F933F935F936F937F938F939F93AF9310
:1000C000BF932091A9023091AA022F5F3F4F309336
:1000D000AA022093A902C90161E772E00E94A0046C
:1000E000892B49F48091A7029091A80201969093E0
:1000F000A8028093A702C9016AE678E10E94A004E1
:10010000892B19F481E08093A602C90162E17AE7A4
:100110000E94A004892B19F481E08093A502243267
:10012000344FA1F41092AA021092A90281E08093A8
:10013000A4028091A002882349F08091A1029091AD
:10014000A20201969093A2028093A102BF91AF9167
:100150009F918F917F916F915F913F912F910F9020
:100160000FBE0F901F901895F894E1E8F0E08081A1
:1001700081608083808188608083EFE6F0E0808109
:10018000826080838FEF90E0909389008093880055
:100190007894089510927C0080E480937C00809194
:1001A0007A00876080937A0080917A0080688093DB
:1001B0007A0080917A00806480937A0080917A003E
:1001C00086FDFCCF80917800909179000895909100
:1001D0007C00987F90937C0090917C00892B809389
:1001E0007C0080917A00806480937A0080917A000C
:1001F00086FDFCCF80917800909179000895CF9290
:10020000DF92EF92FF921F93CF93DF93182FD62F99
:10021000C0E0C12CD12C7601CD1749F0812F0E946E
:10022000E700C80ED91EE11CF11CCF5FF5CFC70156
:10023000B6010E9455056B017C016C2F70E080E0D7
:1002400090E00E9455059B01AC01C701B6010E94D8
:10025000B4040E942605CB01DF91CF911F91FF903E
:10026000EF90DF90CF900895F89415BC85B583602A
:1002700085BD14BC84B5836084BD789408958630B0
:10028000A1F484B5611104C08F7384BD5E98089594
:100290006F3F21F48F7384BD5E9A0895806884BD9A
:1002A00084B58F7B84BD67BD0895853099F484B58E
:1002B000611104C08F7C84BD5D9808956F3F21F467
:1002C0008F7C84BD5D9A0895806284BD84B58F7EE5
:1002D00084BD68BD08958091C00087FF03C08091F0
:1002E000C600089580E008959091C00095FFFCCF6E
:1002F0008093C6000895CF93DF93EC018991882302
:1003000019F00E947401FACFDF91CF9108950F93F5
:100310001F93072F182F292F33270093C5006093B1
:10032000C40088E18093C1008EE08093C20088E021
:1003300091E01F910F910C947B015C985C9A5C9802
:100340000895EF92FF920F931F93CF93DF938C0149
:10035000C0E0D0E0EE24E394F12CF8012081C70145
:100360000C2E01C0880F0A94EAF7822311F02A9A12
:1003700001C02A980E949D012196C330D10569F7DA
:10038000DF91CF911F910F91FF90EF900895FC01A5
:100390008081232B11F0846001C08B7F808380815A
:1003A000452B11F0826001C08D7F80838081672B97
:1003B00011F0816001C08E7F80830895FC0110825E
:1003C0000C94A101229A549A3A9838983998089531
:1003D0001F93CF93DF93EC0181E08883CE010E94CD
:1003E000A1012FE78BEF96E0215080409040E1F78C
:1003F00000C0000012E01883CE010E94A1012FE787
:100400008BEF96E0215080409040E1F700C0000063
:1004100084E08883CE010E94A1012FE78BEF96E054
:10042000215080409040E1F700C000001883CE01C9
:100430000E94A1012FE78BEF96E021508040904071
:10044000E1F700C00000CE01DF91CF911F910C9425
:10045000DE016FEF85E00E943F0164EB86E00E94C1
:100460003F015F9A2898299A2B98089564EB85E0BC
:100470000E943F016FEF86E00E943F015F98289A3B
:100480002B9A299808956BE985E00E943F0160E06E
:1004900086E00E943F015F9A28982B9A2998089538
:1004A00060E085E00E943F016BE986E00E943F0129
:1004B0005F98289A2B9A299808956BE985E00E9405
:1004C0003F016BE986E00E943F01289829985F9AD6
:1004D0002B9A0895289829985F982B98089587B1AA
:1004E000887F87B91AB814B880E68AB9579A0E94EB
:1004F000340184B18B6084B96BE985E00E943F01CF
:100500006BE986E00C943F016FEF85E00E943F01AC
:1005100060E086E00E943F015F9A28982B98299816
:10052000089560E085E00E943F016FEF86E00E9441
:100530003F015F9828982B9A29980895CF93DF93CD
:10054000CDB7DEB7C756D1090FB6F894DEBF0FBEE0
:10055000CDBF1092A2021092A1021092A0020E949E
:10056000B4000E946F0267E670E080E090E00E94B5
:100570008701389839983A980E94CA000E94E2018F
:1005800081E090E00E94E3057C010E94DE01F7011A
:10059000308010E0412C512C66246394712CA79676
:1005A0001FAE1EAEA797A8950E946B01082F64E1AD
:1005B00080E00E94FF006C0164E181E00E94FF0086
:1005C0004C0164E182E00E94FF005C0121E030E028
:1005D000FDE2CF16F1E0DF0610F420E030E041E06C
:1005E00050E08DE2881681E0980610F440E050E07B
:1005F00061E070E09FE5A91691E0B90610F460E0B3
:1006000070E0C7010E94C7010335D1F4EFE5AE16D3
:10061000E1E0BE0628F1FDE28F16F1E09F0600F151
:100620002DE2C21621E0D206D8F01335D1F182E1D5
:1006300091E00E947B0181E08093A00213E531C02C
:10064000003529F4103569F1133551F425C004350E
:1006500019F4133529F422C0083411F4143501F1CA
:1006600011111FC03DE2831631E0930650F08DE278
:10067000C81681E0D80628F09FE5A91691E0B906D2
:1006800080F48091A602882361F085E591E00E94C4
:100690007B011092A60205C010E503C014E501C05D
:1006A00018E4F701F081A896FFAFA8973F1641F034
:1006B000C7010E94A101F701F081A896FFAFA8979A
:1006C000133509F05DC02DE2821621E0920648F054
:1006D0000E945D023FE5A31631E0B30608F0B4C006
:1006E00019C08DE2C81681E0D80618F00E944302B6
:1006F00017C09FE5A91691E0B90618F00E945002B4
:10070000A8C04114510419F00E94290296C00E9409
:10071000360293C0FDE2CF16F1E0DF0608F48DC08B
:10072000612C712CA7961FAE1EAEA797442443944C
:10073000512C8091A402811104C0A8963FACA897C7
:1007400032CF809101018F93809100018F93E6E772
:10075000F2E0FF93EF9381E090E08C0F9D1F9F9359
:100760008F930E940407CE0101960E947B01109294
:10077000A4020F900F900F900F900F900F90DDCF6D
:100780001035A9F40E946A02C7010E94E801809115
:10079000A402882331F080E992E00E947B0110924C
:1007A000A4020E946B018035E1F713E5C6CF143532
:1007B000D1F4D092B002C092AF029092B202809275
:1007C000B102B092B402A092B3020E94840280915E
:1007D000A502882309F4B1CF87E992E00E947B014A
:1007E0001092A502AACF183409F0A7CF0E946A027E
:1007F00064E180E00E94FF005C0164E181E00E940E
:10080000FF004C0164E182E00E94FF001C010AE04D
:1008100010E0EFE9FFE03197F1F700C000000E941F
:10082000840201501109A9F7AB2809F0BECF89282D
:1008300009F0BBCF2328E1F2B8CF612C712CA79629
:100840001FAE1EAEA79775CF2DE2C21621E0D206CD
:1008500048F4612C712CA7961FAE1EAEA797412CB1
:10086000512C67CF8091A7029091A802A796EEAD78
:10087000FFADA797EF2B21F4A7969FAF8EAFA79759
:10088000A7962EAD3FADA797821B930B069708F452
:100890004DCF6114710409F049CF8091000190910E
:1008A000010101969093010180930001029721F4C8
:1008B00088E791E00E947B01809100019091010105
:1008C000039721F48EEA91E00E947B018091000160
:1008D00090910101049781F58091A2028F938091FC
:1008E000A1028F9389EE91E09F938F938E010F5F0A
:1008F0001F4F1F930F930E940407C8010E947B01A2
:100900000E946A023FEF83E294EF315080409040B2
:10091000E1F700C0000098E088E10FB6F894A895D0
:10092000809360000FBE909360000F900F900F9027
:100930000F900F900F90FFCF66246394712CF6CE2A
:10094000AA1BBB1B51E107C0AA1FBB1FA617B707F5
:1009500010F0A61BB70B881F991F5A95A9F7809511
:100960009095BC01CD0108950E94C8040C94A9057E
:100970000E94A20558F00E949B0540F029F45F3FB9
:1009800029F00C94920551110C94DD050C949805F6
:100990000E94BA0568F39923B1F3552391F3951B8F
:1009A000550BBB27AA2762177307840738F09F5F90
:1009B0005F4F220F331F441FAA1FA9F335D00E2EFD
:1009C0003AF0E0E832D091505040E695001CCAF76A
:1009D0002BD0FE2F29D0660F771F881FBB1F26172D
:1009E00037074807AB07B0E809F0BB0B802DBF0104
:1009F000FF2793585F4F3AF09E3F510578F00C94D3
:100A000092050C94DD055F3FE4F3983ED4F38695A0
:100A100077956795B795F7959F5FC9F7880F911DF3
:100A20009695879597F90895E1E0660F771F881FDF
:100A3000BB1F621773078407BA0720F0621B730B92
:100A4000840BBA0BEE1F88F7E09508950E94C2054B
:100A500088F09F5798F0B92F9927B751B0F0E1F07F
:100A6000660F771F881F991F1AF0BA95C9F714C02F
:100A7000B13091F00E94DC05B1E008950C94DC05E2
:100A8000672F782F8827B85F39F0B93FCCF3869568
:100A900077956795B395D9F73EF4909580957095C5
:100AA00061957F4F8F4F9F4F0895E89409C097FB42
:100AB0003EF490958095709561957F4F8F4F9F4F35
:100AC0009923A9F0F92F96E9BB279395F695879579
:100AD00077956795B795F111F8CFFAF4BB0F11F43C
:100AE00060FF1BC06F5F7F4F8F4F9F4F16C08823E3
:100AF00011F096E911C0772321F09EE8872F762F19
:100B000005C0662371F096E8862F70E060E02AF059
:100B10009A95660F771F881FDAF7880F9695879545
:100B200097F9089597F99F6780E870E060E008956D
:100B30009FEF80EC089500240A94161617061806F5
:100B40000906089500240A941216130614060506D1
:100B50000895092E0394000C11F4882352F0BB0F62
:100B600040F4BF2B11F460FF04C06F5F7F4F8F4FC5
:100B70009F4F089557FD9058440F551F59F05F3F00
:100B800071F04795880F97FB991F61F09F3F79F0AF
:100B900087950895121613061406551FF2CF469531
:100BA000F1DF08C0161617061806991FF1CF8695B3
:100BB0007105610508940895E894BB276627772797
:100BC000CB0197F908950F931F93CF93DF93823052
:100BD000910510F482E090E0E091B702F091B80244
:100BE00020E030E0A0E0B0E0309719F14081518181
:100BF0000281138148175907C8F08417950769F4D3
:100C0000109731F012960C93129713961C9327C0ED
:100C10000093B7021093B80222C02115310519F0D4
:100C20004217530718F49A01BD01EF01DF01F801E3
:100C3000DBCF21153105F9F0281B390B24303105A4
:100C400080F48A819B816115710521F0FB019383FA
:100C5000828304C09093B8028093B702FE0132965B
:100C600044C0FE01E20FF31F81939193225031099A
:100C7000398328833AC02091B5023091B602232BE4
:100C800041F420910401309105013093B602209384
:100C9000B50220910201309103012115310541F483
:100CA0002DB73EB74091060150910701241B350B2B
:100CB000E091B502F091B602E217F307A0F42E1B03
:100CC0003F0B2817390778F0AC014E5F5F4F2417B0
:100CD000350748F04E0F5F1F5093B6024093B502A0
:100CE0008193919302C0E0E0F0E0CF01DF91CF91DA
:100CF0001F910F910895CF93DF93009709F481C05E
:100D0000FC01329713821282A091B702B091B8020F
:100D1000109781F420813181820F931F2091B502B9
:100D20003091B6022817390751F5F093B602E093D7
:100D3000B50267C0ED0120E030E0CE17DF0740F4D8
:100D40004A815B819E0141155105F1F0EA01F5CF21
:100D5000D383C28340815181840F951FC817D9075F
:100D600059F488819981840F951F0296918380831D
:100D70008A819B81938382832115310529F4F09325
:100D8000B802E093B7023DC0E901FB83EA834991D1
:100D90005991C40FD51FEC17FD0761F48081918133
:100DA000840F951F0296E90199838883828193813C
:100DB0009B838A83E0E0F0E012968D919C911397DB
:100DC000009719F0FD01DC01F7CF8D919C911197EF
:100DD0009D012E5F3F4F820F931F2091B5023091EE
:100DE000B6022817390769F4309729F41092B8022F
:100DF0001092B70202C013821282B093B602A0937F
:100E0000B502DF91CF910895AEE0B0E0EAE0F7E0FF
:100E10000C94C5090D891E8986E08C831A83098389
:100E20008FEF9FE79E838D83AE01475E5F4F6F8993
:100E3000788DCE0101960E942607EF81F885E00F9C
:100E4000F11F10822E96E4E00C94E109ABE0B0E0D3
:100E5000ECE2F7E00C94B7096C017B018A01FC011C
:100E600017821682838181FFCCC1CE0101963C019D
:100E7000F6019381F70193FD859193FF81917F01A5
:100E8000882309F4BAC1853239F493FD859193FF23
:100E900081917F01853229F4B60190E00E941D09FD
:100EA000E7CF912C212C312CFFE1F315D8F08B32B8
:100EB00079F038F4803279F08332A1F4232D206167
:100EC0001DC08D3261F0803369F4232D216016C07E
:100ED000832D8260382EE32DE4603E2E2AC0F32D50
:100EE000F8601DC037FC2DC020ED280F2A3040F0DF
:100EF0008E32B9F436FC81C1232D2064322E19C004
:100F000036FE06C08AE0989E200D1124922E11C054
:100F1000EAE02E9E200D1124222EF32DF0623F2EAA
:100F200008C08C3621F4832D8068382E02C08836A4
:100F300041F4F70193FD859193FF81917F01811128
:100F4000B3CF982F9F7D9554933028F40C5F1F4F9B
:100F50009FE399830DC0833631F0833771F0833579
:100F600009F059C021C0F801808189830E5F1F4FAD
:100F700088248394912C530113C02801F2E04F0E72
:100F8000511CF801A080B18036FE03C0692D70E0CD
:100F900002C06FEF7FEFC5010E9412094C01820170
:100FA000F32DFF773F2E16C0280122E0420E511C80
:100FB000F801A080B18036FE03C0692D70E002C048
:100FC0006FEF7FEFC5010E9407094C01F32DF06818
:100FD0003F2E820133FC1BC0822D90E088169906BB
:100FE000B0F4B60180E290E00E941D092A94F4CF8B
:100FF000F50137FC859137FE81915F01B60190E0E4
:101000000E941D0921102A9421E0821A910881145E
:10101000910471F7E8C0843611F0893641F5F80182
:1010200037FE07C060817181828193810C5F1F4F01
:1010300008C060817181072E000C880B990B0E5F30
:101040001F4FF32DFF763F2E97FF09C09095809597
:10105000709561957F4F8F4F9F4FF0683F2E2AE02C
:1010600030E0A3010E945909882E861845C08537B3
:1010700031F4232D2F7EB22E2AE030E025C0932DAF
:10108000997FB92E8F36C1F018F4883579F0B5C044
:10109000803719F0883721F0B0C0E92FE061BE2E0B
:1010A000B4FE0DC0FB2DF460BF2E09C034FE0AC093
:1010B000292F2660B22E06C028E030E005C020E1CE
:1010C00030E002C020E132E0F801B7FE07C06081E5
:1010D0007181828193810C5F1F4F06C06081718195
:1010E00080E090E00E5F1F4FA3010E945909882EF7
:1010F0008618FB2DFF773F2E36FE0DC0232D2E7F49
:10110000A22E891458F434FE0BC032FC09C0832D82
:101110008E7EA82E05C0B82CA32C03C0B82C01C00D
:10112000B92CA4FE0FC0FE01E80DF11D80818033B3
:1011300021F49A2D997EA92E09C0A2FE06C0B3946F
:10114000B39404C08A2D867809F0B394A3FC11C02F
:10115000A0FE06C0B21488F4280C922C9B180EC076
:10116000B21460F4B60180E290E00E941D09B394CD
:10117000F7CFB21418F42B1802C0982C212CA4FE1F
:1011800010C0B60180E390E00E941D09A2FE17C0C6
:10119000A1FC03C088E790E002C088E590E0B601BA
:1011A0000CC08A2D867859F0A1FE02C08BE201C0E6
:1011B00080E2A7FC8DE2B60190E00E941D0989142F
:1011C00038F4B60180E390E00E941D099A94F7CFAD
:1011D0008A94F301E80DF11D8081B60190E00E9430
:1011E0001D098110F5CF222009F442CEB60180E21C
:1011F00090E00E941D092A94F6CFF601868197811E
:1012000002C08FEF9FEF2B96E2E10C94D309FC0113
:101210000590615070400110D8F7809590958E0F21
:101220009F1F0895FC016150704001900110D8F794
:10123000809590958E0F9F1F08950F931F93CF93C6
:10124000DF93FB01238121FD03C08FEF9FEF2CC0B3
:1012500022FF16C0468157812481358142175307EA
:1012600044F4A081B1819D012F5F3F4F31832083E2
:101270008C93268137812F5F3F4F3783268314C09D
:101280008B01EC01FB010084F185E02D0995892B90
:10129000E1F6D80116968D919C91179701961796B5
:1012A0009C938E931697CE01DF91CF911F910F9152
:1012B0000895FA01AA27283051F1203181F1E894EC
:1012C0006F936E7F6E5F7F4F8F4F9F4FAF4FB1E039
:1012D0003ED0B4E03CD0670F781F891F9A1FA11D34
:1012E000680F791F8A1F911DA11D6A0F711D811D35
:1012F000911DA11D20D009F468943F912AE0269FFA
:1013000011243019305D3193DEF6CF010895462F58
:101310004770405D4193B3E00FD0C9F7F6CF462F39
:101320004F70405D4A3318F0495D31FD40524193A2
:1013300002D0A9F7EACFB4E0A6959795879577955F
:101340006795BA95C9F700976105710508959B01E6
:10135000AC010A2E06945795479537952795BA956F
:10136000C9F7620F731F841F951FA01D08952F9248
:101370003F924F925F926F927F928F929F92AF9225
:10138000BF92CF92DF92EF92FF920F931F93CF9372
:10139000DF93CDB7DEB7CA1BDB0B0FB6F894DEBF09
:1013A0000FBECDBF09942A88398848885F846E842F
:1013B0007D848C849B84AA84B984C884DF80EE8079
:1013C000FD800C811B81AA81B981CE0FD11D0FB682
:1013D000F894DEBF0FBECDBFED010895F894FFCFA6
:1013E00001000000B90220003C285E5F5E293E0A31
:1013F000000048657265204920616D206F6E63654D
:10140000206D6F72652C20676F696E6720646F773F
:101410006E20746865206F6E6C7920726F756E64D3
:1014200020492776652065766572206B6E6F776E32
:101430002E2E2E0A0048657920796F752C20796F41
:1014400075206B6E6F77207768617420746F2064ED
:101450006F2E203A2D290A00594541482C20646FEF
:101460006E65206669727374206C61702C206665ED
:10147000656C69672077656C6C2C20676F696E6797
:1014800020666F72206C617020322F330A0059453C
:10149000414820594541482C20646F6E6520326ECA
:1014A00064206C61702C206665656C696E672070C5
:1014B000726F75642C20676F696E6720666F72208B
:1014C0006C617020332F330A002046696E616C6CAA
:1014D000792066696E6973686564202C20497427D9
:1014E00073206F76657220616E6420646F6E652074
:1014F0006E6F772C206166746572202325642073DB
:1015000065636F6E64732E205468616E6B73206622
:101510006F7220776F726B696E67207769746820CD
:101520006D6521203A2D2920492077696C6C207245
:1015300065736574206D7973656C6620696E2035FE
:10154000207365636F6E64732E2054616B65206336
:10155000617265210A0043757272656E746C792040
:101560004920676F20726F756E64202325640A001E
:1015700050617573650A006C616C616C612E0A00C4
:00000001FF
