:100000000C9434000C9451000C9451000C94510049
:100010000C9451000C9451000C9451000C9451001C
:100020000C9451000C9451000C9451000C9451000C
:100030000C9451000C9451000C9451000C945100FC
:100040000C9451000C9451000C9451000C945100EC
:100050000C9451000C9451000C9451000C945100DC
:100060000C9451000C94510011241FBECFEFD8E026
:10007000DEBFCDBF11E0A0E0B1E0E0E4F4E002C0FB
:1000800005900D92AA37B107D9F721E0AAE7B1E0B0
:1000900001C01D92AE37B207E1F70E94E3000C9455
:1000A0001E020C9400005C985C9A5C980895EF9294
:1000B000FF920F931F93CF93DF938C01C0E0D0E0AA
:1000C000EE24E394F12CF8012081C7010C2E01C02D
:1000D000880F0A94EAF78223A9F02A9A823039F02D
:1000E000843051F0813059F480E191E002C089E21E
:1000F00091E00E94C10007C084E491E0FACF8EE550
:1001000091E0F7CF2A980E9453002196C330D10581
:10011000D1F6DF91CF911F910F91FF90EF9008954D
:10012000FC018081309B02C0846001C08B7F808392
:100130008081319B02C0826001C08D7F808380817D
:10014000329B02C0816001C08E7F80830895FC01D4
:1001500010820C94570084E084B980E18AB93A98FF
:100160003898399808958091C00087FFFCCF80911E
:10017000C60008959091C00095FFFCCF8093C60003
:100180000895CF93DF93EC018991882319F00E94A1
:10019000BA00FACFDF91CF9108950F931F93072FE5
:1001A000182F292F33270093C5006093C40088E1DE
:1001B0008093C1008EE08093C20086E091E01F91A1
:1001C0000F910C94C1000E94AB0067E670E080E0E4
:1001D00090E00E94CD0081E090E00E94FD00EC01E3
:1001E0000E94A7001881CE010E949000888181178B
:1001F000D1F3CE010E945700F5CF0F931F93CF93F9
:10020000DF938230910510F482E090E0E0917C0170
:10021000F0917D0120E030E0A0E0B0E0309719F1EE
:10022000408151810281138148175907C8F0841712
:10023000950769F4109731F012960C931297139664
:100240001C9327C000937C0110937D0122C02115CF
:10025000310519F04217530718F49A01BD01EF0157
:10026000DF01F801DBCF21153105F9F0281B390B2F
:100270002430310580F48A819B816115710521F05C
:10028000FB019383828304C090937D0180937C0162
:10029000FE01329644C0FE01E20FF31F8193919359
:1002A00022503109398328833AC020917A01309154
:1002B0007B01232B41F42091020130910301309303
:1002C0007B0120937A0120910001309101012115D9
:1002D000310541F42DB73EB740910401509105011D
:1002E000241B350BE0917A01F0917B01E217F307B3
:1002F000A0F42E1B3F0B2817390778F0AC014E5F96
:100300005F4F2417350748F04E0F5F1F50937B0156
:1003100040937A018193919302C0E0E0F0E0CF0135
:10032000DF91CF911F910F910895CF93DF930097A5
:1003300009F481C0FC01329713821282A0917C01E2
:10034000B0917D01109781F420813181820F931F3C
:1003500020917A0130917B012817390751F5F093EC
:100360007B01E0937A0167C0ED0120E030E0CE1719
:10037000DF0740F44A815B819E0141155105F1F090
:10038000EA01F5CFD383C28340815181840F951F49
:10039000C817D90759F488819981840F951F02964F
:1003A000918380838A819B81938382832115310588
:1003B00029F4F0937D01E0937C013DC0E901FB83CA
:1003C000EA8349915991C40FD51FEC17FD0761F4D9
:1003D00080819181840F951F0296E901998388831A
:1003E000828193819B838A83E0E0F0E012968D9175
:1003F0009C911397009719F0FD01DC01F7CF8D91C7
:100400009C9111979D012E5F3F4F820F931F20916A
:100410007A0130917B012817390769F4309729F464
:1004200010927D0110927C0102C013821282B0935F
:100430007B01A0937A01DF91CF910895F894FFCFCB
:1004400000007E0120003C285E5F5E293E0A00001D
:100450004C454654204C4544205345542F4C442091
:100460004649524553210A0A004D4944444C45200F
:100470004C4544205345542F4C4620464952455341
:10048000210A0A005249474854204C45442053450C
:10049000542F4C46204649524553210A0A004E4FDC
:1004A000204F52204D554C5449504C45204C4673DA
:0A04B0002046495245210A0A0000C7
:00000001FF
