:100000000C9434000C9451000C9451000C94510049
:100010000C9451000C9451000C9451000C9451001C
:100020000C9451000C9451000C9451000C94A100BC
:100030000C9451000C9451000C9451000C945100FC
:100040000C9451000C9451000C9451000C945100EC
:100050000C9451000C9451000C9451000C945100DC
:100060000C9451000C94510011241FBECFEFD8E026
:10007000DEBFCDBF11E0A0E0B1E0E8ECF1E102C0ED
:1000800005900D92A239B107D9F721E0A2E9B1E0BC
:1000900001C01D92AB3AB207E1F70E94D9020C945D
:1000A000E2080C9400000F931F93CF93DF9364E159
:1000B00080E00E946D028C0164E181E00E946D028B
:1000C000EC0164E182E00E946D0220919D0130917B
:1000D0009E01A801421B530B9A01233E5FEF350797
:1000E00024F12E3131050CF520919F013091A001B2
:1000F000AE01421B530B9A01233E5FEF3507ACF074
:100100002E31310594F42091A1013091A201821B7E
:10011000930B833E2FEF920744F04E9734F4DF9118
:10012000CF911F910F910C94D8010E94F6014FEFCF
:1001300051EE84E0415050408040E1F700C00000A3
:10014000B6CF1F920F920FB60F9211242F933F93A9
:100150005F936F937F938F939F93AF93BF93209100
:100160009B0130919C012F5F3F4F30939C01209366
:100170009B01C90161E772E00E949403892B49F455
:100180008091990190919A01019690939A018093A0
:100190009901C9016AE678E10E949403892B19F458
:1001A00081E080939801C90162E17AE70E9494039B
:1001B000892B19F481E0809397012432344F39F46C
:1001C00010929C0110929B0181E080939601BF9157
:1001D000AF919F918F917F916F915F913F912F91FF
:1001E0000F900FBE0F901F901895F894E1E8F0E083
:1001F000808181608083808188608083EFE6F0E089
:100200008081826080838FEF90E09093890080935B
:100210008800789408955C985C9A5C980895EF92B1
:10022000FF920F931F93CF93DF938C01C0E0D0E038
:10023000EE24E394F12CF8012081C7010C2E01C0BB
:10024000880F0A94EAF7822311F02A9A01C02A98AB
:100250000E940B012196C330D10569F7DF91CF9140
:100260001F910F91FF90EF900895FC018081232B47
:1002700011F0846001C08B7F80838081452B11F059
:10028000826001C08D7F80838081672B11F0816047
:1002900001C08E7F80830895FC0110820C940F01B1
:1002A000229A549A3A983898399808951F93CF9380
:1002B000DF93EC0181E08883CE010E940F012FE7DC
:1002C0008BEF96E0215080409040E1F700C00000A5
:1002D00012E01883CE010E940F012FE78BEF96E00A
:1002E000215080409040E1F700C0000084E0888306
:1002F000CE010E940F012FE78BEF96E02150804046
:100300009040E1F700C000001883CE010E940F0169
:100310002FE78BEF96E0215080409040E1F700C03E
:100320000000CE01DF91CF911F910C944C016FEF33
:1003300085E00E94AD0264EB86E00E94AD025F9A08
:100340002898299A2B98089564EB85E00E94AD02C5
:100350006FEF86E00E94AD025F98289A2B9A299849
:1003600008956FEF85E00E94AD026BE986E00E9480
:10037000AD025F9A28982B9A299808956BE985E039
:100380000E94AD026FEF86E00E94AD025F98289A4E
:100390002B9A299808956BE985E00E94AD026BE9DC
:1003A00086E00E94AD02289829985F9A2B9A0895BA
:1003B000289829985F982B98089588EF87B967E661
:1003C00070E080E090E00E9424021AB814B880E641
:1003D0008AB9579A0E94A2028BE084B96BE985E042
:1003E0000E94AD026BE986E00C94AD026FEF85E0F0
:1003F0000E94AD0260E086E00E94AD025F9A2898FC
:100400002B9A299808958091C00087FD07C080919C
:10041000C00087FF04C08091C6000895089580E061
:1004200008959091C00095FFFCCF8093C600089579
:10043000CF93DF93EC018991882319F00E94110278
:10044000FACFDF91CF9108950F931F93072F182FA5
:10045000292F33270093C5006093C40088E180935F
:10046000C1008EE08093C20088E091E01F910F915F
:100470000C94180210927C0080E480937C0087E04A
:1004800080937A0080917A00806880937A008091CE
:100490007A00806480937A0080917A0086FDFCCF98
:1004A0008091780090917900089590917C00987FD8
:1004B00090937C0090917C00892B80937C008091AC
:1004C0007A00806480937A0080917A0086FDFCCF68
:1004D00080917800909179000895CF92DF92EF9209
:1004E000FF921F93CF93DF93182FD62FC0E0C12C1C
:1004F000D12C7601CD1749F0812F0E945502C80EEC
:10050000D91EE11CF11CCF5FF5CFC701B6010E94D7
:1005100049046B017C016C2F70E080E090E00E9448
:1005200049049B01AC01C701B6010E94A8030E94C7
:100530001A04CB01DF91CF911F91FF90EF90DF90D4
:10054000CF900895F89415BC85B5836085BD14BC23
:1005500084B5836084BD789408958630A1F484B511
:10056000611104C08F7384BD5E9808956F3F21F4BC
:100570008F7384BD5E9A0895806884BD84B58F7B37
:1005800084BD67BD0895853099F484B5611104C0B8
:100590008F7C84BD5D9808956F3F21F48F7C84BD6E
:1005A0005D9A0895806284BD84B58F7E84BD68BDE8
:1005B00008958F929F92AF92BF92CF92DF92EF9267
:1005C000FF920F931F93CF93DF93CDB7DEB7E297E0
:1005D0000FB6F894DEBF0FBECDBF0E94F5000E949B
:1005E000DD0167E670E080E090E00E942402389828
:1005F00039983A980E943A020E94500181E090E0B6
:100600000E94D7048C010E944C01F80180800E9456
:100610000302982E64E180E00E946D027C0164E197
:1006200081E00E946D026C0164E182E00E946D0233
:100630005C0121E030E0FDE2EF16F1E0FF0610F48E
:1006400020E030E041E050E089ECC816D10410F41D
:1006500040E050E061E070E0EFE5AE16E1E0BE069C
:1006600010F460E070E0C8010E943501F80180815B
:10067000881619F0C8010E940F01F3E59F123FC0D0
:100680008FE5A81681E0B80680F1E9ECCE16D1041A
:1006900060F1FDE2EF16F1E0FF0638F182E191E052
:1006A0000E9418020E94CB0180919601882339F1A3
:1006B000809101018F93809100018F9385E591E0F6
:1006C0009F938F938E010F5F1F4F1F930F930E9475
:1006D000F805C8010E941802109296010F900F9021
:1006E0000F900F900F900F900AC08091980188236F
:1006F00031F08FE691E00E9418021092980180E09C
:1007000090E0E2960FB6F894DEBF0FBECDBFDF914A
:10071000CF911F910F91FF90EF90DF90CF90BF90FE
:10072000AF909F908F900895AA1BBB1B51E107C00B
:10073000AA1FBB1FA617B70710F0A61BB70B881F71
:10074000991F5A95A9F780959095BC01CD01089500
:100750000E94BC030C949D040E94960458F00E94D1
:100760008F0440F029F45F3F29F00C948604511166
:100770000C94D1040C948C040E94AE0468F3992369
:10078000B1F3552391F3951B550BBB27AA2762178D
:100790007307840738F09F5F5F4F220F331F441F9A
:1007A000AA1FA9F335D00E2E3AF0E0E832D09150CE
:1007B0005040E695001CCAF72BD0FE2F29D0660FBB
:1007C000771F881FBB1F261737074807AB07B0E8FE
:1007D00009F0BB0B802DBF01FF2793585F4F3AF004
:1007E0009E3F510578F00C9486040C94D1045F3F31
:1007F000E4F3983ED4F3869577956795B795F7958A
:100800009F5FC9F7880F911D9695879597F9089571
:10081000E1E0660F771F881FBB1F6217730784070D
:10082000BA0720F0621B730B840BBA0BEE1F88F71C
:10083000E09508950E94B60488F09F5798F0B92F6C
:100840009927B751B0F0E1F0660F771F881F991F05
:100850001AF0BA95C9F714C0B13091F00E94D004D3
:10086000B1E008950C94D004672F782F8827B85FE3
:1008700039F0B93FCCF3869577956795B395D9F75D
:100880003EF490958095709561957F4F8F4F9F4F67
:100890000895E89409C097FB3EF490958095709573
:1008A00061957F4F8F4F9F4F9923A9F0F92F96E9BC
:1008B000BB279395F695879577956795B795F11131
:1008C000F8CFFAF4BB0F11F460FF1BC06F5F7F4FCE
:1008D0008F4F9F4F16C0882311F096E911C07723E0
:1008E00021F09EE8872F762F05C0662371F096E8E9
:1008F000862F70E060E02AF09A95660F771F881FB8
:10090000DAF7880F9695879597F9089597F99F6775
:1009100080E870E060E008959FEF80EC0895002487
:100920000A941616170618060906089500240A9454
:1009300012161306140605060895092E0394000CDA
:1009400011F4882352F0BB0F40F4BF2B11F460FF69
:1009500004C06F5F7F4F8F4F9F4F089557FD905892
:10096000440F551F59F05F3F71F04795880F97FB73
:10097000991F61F09F3F79F087950895121613062D
:100980001406551FF2CF4695F1DF08C0161617065C
:100990001806991FF1CF8695710561050894089591
:1009A000E894BB2766277727CB0197F908950F9323
:1009B0001F93CF93DF938230910510F482E090E093
:1009C000E091A901F091AA0120E030E0A0E0B0E0C0
:1009D000309719F1408151810281138148175907DD
:1009E000C8F08417950769F4109731F012960C93AC
:1009F000129713961C9327C00093A9011093AA0184
:100A000022C02115310519F04217530718F49A0135
:100A1000BD01EF01DF01F801DBCF21153105F9F050
:100A2000281B390B2430310580F48A819B816115A4
:100A3000710521F0FB019383828304C09093AA0186
:100A40008093A901FE01329644C0FE01E20FF31F1C
:100A50008193919322503109398328833AC02091A0
:100A6000A7013091A801232B41F42091040130917A
:100A700005013093A8012093A70120910201309134
:100A800003012115310541F42DB73EB74091060110
:100A900050910701241B350BE091A701F091A801AB
:100AA000E217F307A0F42E1B3F0B2817390778F045
:100AB000AC014E5F5F4F2417350748F04E0F5F1FA4
:100AC0005093A8014093A7018193919302C0E0E065
:100AD000F0E0CF01DF91CF911F910F910895CF9357
:100AE000DF93009709F481C0FC01329713821282D0
:100AF000A091A901B091AA01109781F420813181C0
:100B0000820F931F2091A7013091A8012817390760
:100B100051F5F093A801E093A70167C0ED0120E033
:100B200030E0CE17DF0740F44A815B819E0141151A
:100B30005105F1F0EA01F5CFD383C28340815181A1
:100B4000840F951FC817D90759F488819981840F9C
:100B5000951F0296918380838A819B8193838283F0
:100B60002115310529F4F093AA01E093A9013DC0B4
:100B7000E901FB83EA8349915991C40FD51FEC1712
:100B8000FD0761F480819181840F951F0296E90130
:100B900099838883828193819B838A83E0E0F0E05C
:100BA00012968D919C911397009719F0FD01DC012D
:100BB000F7CF8D919C9111979D012E5F3F4F820F32
:100BC000931F2091A7013091A8012817390769F4D4
:100BD000309729F41092AA011092A90102C0138241
:100BE0001282B093A801A093A701DF91CF9108953D
:100BF000AEE0B0E0EEEFF5E00C94B9080D891E8987
:100C000086E08C831A8309838FEF9FE79E838D8311
:100C1000AE01475E5F4F6F89788DCE0101960E94CD
:100C20001A06EF81F885E00FF11F10822E96E4E09E
:100C30000C94D508ABE0B0E0E0E2F6E00C94AB0831
:100C40006C017B018A01FC0117821682838181FF7E
:100C5000CCC1CE0101963C01F6019381F70193FDD1
:100C6000859193FF81917F01882309F4BAC1853270
:100C700039F493FD859193FF81917F01853229F4A9
:100C8000B60190E00E941108E7CF912C212C312C65
:100C9000FFE1F315D8F08B3279F038F4803279F037
:100CA0008332A1F4232D20611DC08D3261F0803389
:100CB00069F4232D216016C0832D8260382EE32D28
:100CC000E4603E2E2AC0F32DF8601DC037FC2DC015
:100CD00020ED280F2A3040F08E32B9F436FC81C165
:100CE000232D2064322E19C036FE06C08AE0989E5D
:100CF000200D1124922E11C0EAE02E9E200D112409
:100D0000222EF32DF0623F2E08C08C3621F4832D65
:100D10008068382E02C0883641F4F70193FD859132
:100D200093FF81917F018111B3CF982F9F7D9554BF
:100D3000933028F40C5F1F4F9FE399830DC08336D7
:100D400031F0833771F0833509F059C021C0F801C3
:100D5000808189830E5F1F4F88248394912C5301D7
:100D600013C02801F2E04F0E511CF801A080B180A1
:100D700036FE03C0692D70E002C06FEF7FEFC50142
:100D80000E9406084C018201F32DFF773F2E16C00A
:100D9000280122E0420E511CF801A080B18036FEED
:100DA00003C0692D70E002C06FEF7FEFC5010E94A4
:100DB000FB074C01F32DF0683F2E820133FC1BC072
:100DC000822D90E088169906B0F4B60180E290E09A
:100DD0000E9411082A94F4CFF50137FC859137FE63
:100DE00081915F01B60190E00E94110821102A94C0
:100DF00021E0821A91088114910471F7E8C08436C9
:100E000011F0893641F5F80137FE07C06081718124
:100E1000828193810C5F1F4F08C060817181072E12
:100E2000000C880B990B0E5F1F4FF32DFF763F2EA2
:100E300097FF09C090958095709561957F4F8F4F72
:100E40009F4FF0683F2E2AE030E0A3010E944D083A
:100E5000882E861845C0853731F4232D2F7EB22E7B
:100E60002AE030E025C0932D997FB92E8F36C1F04E
:100E700018F4883579F0B5C0803719F0883721F03B
:100E8000B0C0E92FE061BE2EB4FE0DC0FB2DF460B2
:100E9000BF2E09C034FE0AC0292F2660B22E06C01C
:100EA00028E030E005C020E130E002C020E132E07F
:100EB000F801B7FE07C060817181828193810C5F68
:100EC0001F4F06C06081718180E090E00E5F1F4F70
:100ED000A3010E944D08882E8618FB2DFF773F2E18
:100EE00036FE0DC0232D2E7FA22E891458F434FE19
:100EF0000BC032FC09C0832D8E7EA82E05C0B82CF5
:100F0000A32C03C0B82C01C0B92CA4FE0FC0FE0155
:100F1000E80DF11D8081803321F49A2D997EA92E50
:100F200009C0A2FE06C0B394B39404C08A2D86788B
:100F300009F0B394A3FC11C0A0FE06C0B21488F45B
:100F4000280C922C9B180EC0B21460F4B60180E2FB
:100F500090E00E941108B394F7CFB21418F42B1844
:100F600002C0982C212CA4FE10C0B60180E390E0B2
:100F70000E941108A2FE17C0A1FC03C088E790E000
:100F800002C088E590E0B6010CC08A2D867859F041
:100F9000A1FE02C08BE201C080E2A7FC8DE2B60197
:100FA00090E00E941108891438F4B60180E390E0C3
:100FB0000E9411089A94F7CF8A94F301E80DF11D6D
:100FC0008081B60190E00E9411088110F5CF2220A7
:100FD00009F442CEB60180E290E00E9411082A9402
:100FE000F6CFF6018681978102C08FEF9FEF2B9697
:100FF000E2E10C94C708FC010590615070400110BB
:10100000D8F7809590958E0F9F1F0895FC01615031
:10101000704001900110D8F7809590958E0F9F1F1A
:1010200008950F931F93CF93DF93FB01238121FD3D
:1010300003C08FEF9FEF2CC022FF16C0468157815F
:10104000248135814217530744F4A081B1819D0169
:101050002F5F3F4F318320838C93268137812F5F11
:101060003F4F3783268314C08B01EC01FB010084C2
:10107000F185E02D0995892BE1F6D80116968D9121
:101080009C911797019617969C938E931697CE0175
:10109000DF91CF911F910F910895FA01AA2728306F
:1010A00051F1203181F1E8946F936E7F6E5F7F4F35
:1010B0008F4F9F4FAF4FB1E03ED0B4E03CD0670FB1
:1010C000781F891F9A1FA11D680F791F8A1F911D04
:1010D000A11D6A0F711D811D911DA11D20D009F454
:1010E00068943F912AE0269F11243019305D319396
:1010F000DEF6CF010895462F4770405D4193B3E07F
:101100000FD0C9F7F6CF462F4F70405D4A3318F025
:10111000495D31FD4052419302D0A9F7EACFB4E0D6
:10112000A6959795879577956795BA95C9F700978E
:101130006105710508959B01AC010A2E069457952F
:10114000479537952795BA95C9F7620F731F841F86
:10115000951FA01D08952F923F924F925F926F921C
:101160007F928F929F92AF92BF92CF92DF92EF9237
:10117000FF920F931F93CF93DF93CDB7DEB7CA1BB8
:10118000DB0B0FB6F894DEBF0FBECDBF09942A88E3
:10119000398848885F846E847D848C849B84AA848B
:1011A000B984C884DF80EE80FD800C811B81AA8118
:1011B000B981CE0FD11D0FB6F894DEBF0FBECDBFE3
:0811C000ED010895F894FFCF42
:1011C80001000000AB0120003C285E5F5E293E0A5A
:1011D800000048657265204920616D206F6E636567
:1011E800206D6F72652C20676F696E6720646F775A
:1011F8006E20746865206F6E6C7920726F756E64EE
:1012080020492776652065766572206B6E6F776E4C
:101218002E2E2E0A0043757272656E746C79204901
:1012280020676F20726F756E64202325640A00485A
:10123800657920796F752C20796F75206B6E6F77C3
:10124800207768617420746F20646F2E203A2D29EE
:021258000A008A
:00000001FF
