:100000000C9434000C9451000C9451000C94510049
:100010000C9451000C9451000C9451000C9451001C
:100020000C9451000C9451000C9451000C9453000A
:100030000C9451000C9451000C9451000C945100FC
:100040000C9451000C9451000C9451000C945100EC
:100050000C9451000C9451000C9451000C945100DC
:100060000C9451000C94510011241FBECFEFD8E026
:10007000DEBFCDBF12E0A0E0B1E0E0E2F4E102C0FB
:1000800005900D92AE3CB107D9F722E0AEECB2E09C
:1000900001C01D92A93EB207E1F70E949C020C9498
:1000A0000E0A0C9400001F920F920FB60F921124AB
:1000B0002F933F935F936F937F938F939F93AF9310
:1000C000BF932091D9023091DA022F5F3F4F3093D6
:1000D000DA022093D902C90161E772E00E94C004EC
:1000E000892B49F48091D7029091D8020196909380
:1000F000D8028093D702C9016AE678E10E94C00461
:10010000892B19F481E08093D602C90162E17AE774
:100110000E94C004892B19F481E08093D502243217
:10012000344F39F41092DA021092D90281E08093B0
:10013000D4028091CE029091CF028432944F89F400
:100140001092CF021092CE028091D002882349F003
:100150008091D1029091D20201969093D202809325
:10016000D102BF91AF919F918F917F916F915F91DC
:100170003F912F910F900FBE0F901F901895F894FC
:10018000E1E8F0E080818160808380818860808305
:10019000EFE6F0E08081826080838FEF90E09093C3
:1001A0008900809388007894089510927C0080E400
:1001B00080937C0080917A00876080937A008091A0
:1001C0007A00806880937A0080917A0080648093BE
:1001D0007A0080917A0086FDFCCF80917800909122
:1001E0007900089590917C00987F90937C00909185
:1001F0007C00892B80937C0080917A0080648093BE
:100200007A0080917A0086FDFCCF809178009091F1
:1002100079000895CF92DF92EF92FF921F93CF93D0
:10022000DF93182FD62FC0E0C12CD12C7601CD172B
:1002300049F0812F0E94F200C80ED91EE11CF11C6A
:10024000CF5FF5CFC701B6010E9475056B017C0138
:100250006C2F70E080E090E00E9475059B01AC017E
:10026000C701B6010E94D4040E944605CB01DF916C
:10027000CF911F91FF90EF90DF90CF900895F89469
:1002800015BC85B5836085BD14BC84B5836084BD11
:10029000789408958630A1F484B5611104C08F73F9
:1002A00084BD5E9808956F3F21F48F7384BD5E9A7C
:1002B0000895806884BD84B58F7B84BD67BD089533
:1002C000853099F484B5611104C08F7C84BD5D983C
:1002D00008956F3F21F48F7C84BD5D9A08958062FC
:1002E00084BD84B58F7E84BD68BD08958091C000B3
:1002F00087FF03C08091C600089580E00895909123
:10030000C00095FFFCCF8093C6000895CF93DF9384
:10031000EC018991882319F00E947F01FACFDF91C7
:10032000CF9108950F931F93072F182F292F33274D
:100330000093C5006093C40088E18093C1008EE003
:100340008093C20088E091E01F910F910C94860188
:100350005C985C9A5C980895EF92FF920F931F93BC
:10036000CF93DF938C01C0E0D0E0EE24E394F12C36
:10037000F8012081C7010C2E01C0880F0A94EAF70A
:10038000822311F02A9A01C02A980E94A80121967E
:10039000C330D10569F7DF91CF911F910F91FF9085
:1003A000EF900895FC018081232B11F0846001C03F
:1003B0008B7F80838081452B11F0826001C08D7F0F
:1003C00080838081672B11F0816001C08E7F8083E4
:1003D0000895FC0110820C94AC01229A549A3A9828
:1003E0003898399808951F93CF93DF93EC0181E0FB
:1003F0008883CE010E94AC012FE78BEF96E021505D
:1004000080409040E1F700C0000012E01883CE0168
:100410000E94AC012FE78BEF96E021508040904086
:10042000E1F700C0000084E08883CE010E94AC01A7
:100430002FE78BEF96E0215080409040E1F700C01D
:1004400000001883CE010E94AC012FE78BEF96E0ED
:10045000215080409040E1F700C00000CE01DF91C4
:10046000CF911F910C94E9016FEF85E00E944A0142
:1004700064EB86E00E944A015F9A2898299A2B989B
:10048000089564EB85E00E944A016FEF86E00E94C8
:100490004A015F98289A2B9A299808956BE985E07C
:1004A0000E944A0160E086E00E944A015F9A289813
:1004B0002B9A2998089560E085E00E944A016BE933
:1004C00086E00E944A015F98289A2B9A29980895FD
:1004D0006BE985E00E944A016BE986E00E944A01CF
:1004E000289829985F9A2B9A0895289829985F98B8
:1004F0002B98089587B1887F87B91AB814B880E619
:100500008AB9579A0E943F0184B18B6084B96BE924
:1005100085E00E944A016BE986E00C944A016FEF86
:1005200085E00E944A0160E086E00E944A015F9AED
:1005300028982B9829980895CF93DF93CDB7DEB7ED
:10054000E3970FB6F894DEBF0FBECDBF1092D20274
:100550001092D1021092D0020E94BF000E947A0233
:1005600067E670E080E090E00E9492013898399848
:100570003A980E94D5000E94ED0181E090E00E942F
:1005800003067C010E94E901F70150801BAA212C7F
:10059000312C66246394712C00E010E0A8950E9431
:1005A0007601482E64E180E00E940A016C0164E15A
:1005B00081E00E940A014C0164E182E00E940A018C
:1005C0005C0121E030E08DE2C81681E0D80610F42D
:1005D00020E030E041E050E09DE2891691E099068C
:1005E00010F440E050E061E070E0EFE5AE16E1E0CD
:1005F000BE0610F460E070E0C7010E94D201F3E58E
:100600004F121DC02FE5A21621E0B206C8F18DE2FF
:10061000881681E09806A0F19DE2C91691E0D906FE
:1006200078F1EBA9E33509F44DC082E191E00E9435
:10063000860181E08093D002F3E5FBAB43C020E567
:10064000421211C08BA9803529F485E591E00E9402
:10065000860103C09BA9933599F48CE691E00E9432
:100660008601E0E52EC0F4E54F1204C02BA9233526
:1006700039F423C088E4481203C09BA9943501F1E2
:10068000EBA9E1111FC0FDE28F16F1E09F0650F0CB
:100690002DE2C21621E0D20628F08FE5A81681E0EF
:1006A000B80680F48091D602882361F082E891E058
:1006B0000E9486011092D60205C094E59BAB02C051
:1006C000E8E4EBABF7014080541429F0C7010E9425
:1006D000AC01F7014080FBA9F33509F059C02DE2C8
:1006E000821621E0920648F00E9468028FE5A81663
:1006F00081E0B80608F0D4C019C09DE2C91691E0A7
:10070000D90618F00E944E0217C0EFE5AE16E1E0E0
:10071000BE0618F00E945B02C8C02114310419F013
:100720000E943402B8C00E944102B5C09DE2C916C1
:1007300091E0D90608F4AFC0612C712C00E010E004
:1007400022242394312C8091D402811102C0542C94
:1007500025CF809101018F93809100018F93E3EA6F
:10076000F2E0FF93EF9381E090E08C0F9D1F9F9349
:100770008F930E942407CE0101960E948601109259
:10078000D4020F900F900F900F900F900F90DFCF2B
:100790009BA99035B1F40E947502C7010E94F30134
:1007A0008091D402882331F08DEB92E00E94860183
:1007B0001092D4020E9476018035E1F7F3E5FBAB9D
:1007C000C6CFEBA9E435D1F4D092E002C092DF02AB
:1007D0009092E2028092E102B092E402A092E302DF
:1007E0000E948F028091D502882309F4B0CF84EC57
:1007F00092E00E9486011092D502A9CFFBA9F8349D
:1008000009F0A5CF0E94750264E180E00E940A0110
:100810006C0164E181E00E940A015C0164E182E014
:100820000E940A012091DF023091E002C21AD30A2D
:1008300023EEC2162FEFD20614F1EEE1CE16D1044C
:10084000F4F42091E1023091E202A21AB30AF3EE2D
:10085000AF16FFEFBF069CF02EE1A216B1047CF4A8
:100860002091E3023091E402821B930B833EEFEF71
:100870009E072CF04E971CF40E94750268CF0E94D0
:100880008F02FFEF21EE84E0F15020408040E1F73D
:1008900000C00000B9CF612C712C00E010E053CFF4
:1008A000EDE2CE16E1E0DE0638F4612C712C00E0BA
:1008B00010E0212C312C47CF8091D7029091D802A3
:1008C0000115110509F48C01801B910B069708F4A2
:1008D00037CF6114710409F033CF809100019091FA
:1008E000010101969093010180930001029721F488
:1008F00085EA91E00E9486018091000190910101BA
:10090000039721F48BED91E00E9486018091000114
:1009100090910101049781F58091D2028F9380918B
:10092000D1028F9386E192E09F938F938E010F5FA8
:100930001F4F1F930F930E942407C8010E94860136
:100940000E947502FFEF23E284EFF15020408040C7
:10095000E1F700C0000098E088E10FB6F894A89590
:10096000809360000FBE909360000F900F900F90E7
:100970000F900F900F90FFCF66246394712CE0CE00
:10098000AA1BBB1B51E107C0AA1FBB1FA617B707B5
:1009900010F0A61BB70B881F991F5A95A9F78095D1
:1009A0009095BC01CD0108950E94E8040C94C905FE
:1009B0000E94C20558F00E94BB0540F029F45F3F39
:1009C00029F00C94B20551110C94FD050C94B80556
:1009D0000E94DA0568F39923B1F3552391F3951B2F
:1009E000550BBB27AA2762177307840738F09F5F50
:1009F0005F4F220F331F441FAA1FA9F335D00E2EBD
:100A00003AF0E0E832D091505040E695001CCAF729
:100A10002BD0FE2F29D0660F771F881FBB1F2617EC
:100A200037074807AB07B0E809F0BB0B802DBF01C3
:100A3000FF2793585F4F3AF09E3F510578F00C9492
:100A4000B2050C94FD055F3FE4F3983ED4F3869520
:100A500077956795B795F7959F5FC9F7880F911DB3
:100A60009695879597F90895E1E0660F771F881F9F
:100A7000BB1F621773078407BA0720F0621B730B52
:100A8000840BBA0BEE1F88F7E09508950E94E205EB
:100A900088F09F5798F0B92F9927B751B0F0E1F03F
:100AA000660F771F881F991F1AF0BA95C9F714C0EF
:100AB000B13091F00E94FC05B1E008950C94FC0562
:100AC000672F782F8827B85F39F0B93FCCF3869528
:100AD00077956795B395D9F73EF490958095709585
:100AE00061957F4F8F4F9F4F0895E89409C097FB02
:100AF0003EF490958095709561957F4F8F4F9F4FF5
:100B00009923A9F0F92F96E9BB279395F695879538
:100B100077956795B795F111F8CFFAF4BB0F11F4FB
:100B200060FF1BC06F5F7F4F8F4F9F4F16C08823A2
:100B300011F096E911C0772321F09EE8872F762FD8
:100B400005C0662371F096E8862F70E060E02AF019
:100B50009A95660F771F881FDAF7880F9695879505
:100B600097F9089597F99F6780E870E060E008952D
:100B70009FEF80EC089500240A94161617061806B5
:100B80000906089500240A94121613061406050691
:100B90000895092E0394000C11F4882352F0BB0F22
:100BA00040F4BF2B11F460FF04C06F5F7F4F8F4F85
:100BB0009F4F089557FD9058440F551F59F05F3FC0
:100BC00071F04795880F97FB991F61F09F3F79F06F
:100BD00087950895121613061406551FF2CF4695F1
:100BE000F1DF08C0161617061806991FF1CF869573
:100BF0007105610508940895E894BB276627772757
:100C0000CB0197F908950F931F93CF93DF93823011
:100C1000910510F482E090E0E091E702F091E802A3
:100C200020E030E0A0E0B0E0309719F14081518140
:100C30000281138148175907C8F08417950769F492
:100C4000109731F012960C93129713961C9327C0AD
:100C50000093E7021093E80222C02115310519F034
:100C60004217530718F49A01BD01EF01DF01F801A3
:100C7000DBCF21153105F9F0281B390B2430310564
:100C800080F48A819B816115710521F0FB019383BA
:100C9000828304C09093E8028093E702FE013296BB
:100CA00044C0FE01E20FF31F81939193225031095A
:100CB000398328833AC02091E5023091E602232B44
:100CC00041F420910401309105013093E602209314
:100CD000E50220910201309103012115310541F413
:100CE0002DB73EB74091060150910701241B350BEB
:100CF000E091E502F091E602E217F307A0F42E1B63
:100D00003F0B2817390778F0AC014E5F5F4F24176F
:100D1000350748F04E0F5F1F5093E6024093E502FF
:100D20008193919302C0E0E0F0E0CF01DF91CF9199
:100D30001F910F910895CF93DF93009709F481C01D
:100D4000FC01329713821282A091E702B091E8026F
:100D5000109781F420813181820F931F2091E50249
:100D60003091E6022817390751F5F093E602E09337
:100D7000E50267C0ED0120E030E0CE17DF0740F468
:100D80004A815B819E0141155105F1F0EA01F5CFE1
:100D9000D383C28340815181840F951FC817D9071F
:100DA00059F488819981840F951F029691838083DD
:100DB0008A819B81938382832115310529F4F093E5
:100DC000E802E093E7023DC0E901FB83EA83499131
:100DD0005991C40FD51FEC17FD0761F480819181F3
:100DE000840F951F0296E9019983888382819381FC
:100DF0009B838A83E0E0F0E012968D919C9113979B
:100E0000009719F0FD01DC01F7CF8D919C911197AE
:100E10009D012E5F3F4F820F931F2091E50230917D
:100E2000E6022817390769F4309729F41092E8028E
:100E30001092E70202C013821282B093E602A093DE
:100E4000E502DF91CF910895AEE0B0E0EAE2F7E08D
:100E50000C94E5090D891E8986E08C831A83098329
:100E60008FEF9FE79E838D83AE01475E5F4F6F8953
:100E7000788DCE0101960E944607EF81F885E00F3C
:100E8000F11F10822E96E4E00C94010AABE0B0E072
:100E9000ECE4F7E00C94D7096C017B018A01FC01BA
:100EA00017821682838181FFCCC1CE0101963C015D
:100EB000F6019381F70193FD859193FF81917F0165
:100EC000882309F4BAC1853239F493FD859193FFE3
:100ED00081917F01853229F4B60190E00E943D099D
:100EE000E7CF912C212C312CFFE1F315D8F08B3278
:100EF00079F038F4803279F08332A1F4232D206127
:100F00001DC08D3261F0803369F4232D216016C03D
:100F1000832D8260382EE32DE4603E2E2AC0F32D0F
:100F2000F8601DC037FC2DC020ED280F2A3040F09E
:100F30008E32B9F436FC81C1232D2064322E19C0C3
:100F400036FE06C08AE0989E200D1124922E11C014
:100F5000EAE02E9E200D1124222EF32DF0623F2E6A
:100F600008C08C3621F4832D8068382E02C0883664
:100F700041F4F70193FD859193FF81917F018111E8
:100F8000B3CF982F9F7D9554933028F40C5F1F4F5B
:100F90009FE399830DC0833631F0833771F0833539
:100FA00009F059C021C0F801808189830E5F1F4F6D
:100FB00088248394912C530113C02801F2E04F0E32
:100FC000511CF801A080B18036FE03C0692D70E08D
:100FD00002C06FEF7FEFC5010E9432094C01820110
:100FE000F32DFF773F2E16C0280122E0420E511C40
:100FF000F801A080B18036FE03C0692D70E002C008
:101000006FEF7FEFC5010E9427094C01F32DF068B7
:101010003F2E820133FC1BC0822D90E0881699067A
:10102000B0F4B60180E290E00E943D092A94F4CF2A
:10103000F50137FC859137FE81915F01B60190E0A3
:101040000E943D0921102A9421E0821A91088114FE
:10105000910471F7E8C0843611F0893641F5F80142
:1010600037FE07C060817181828193810C5F1F4FC1
:1010700008C060817181072E000C880B990B0E5FF0
:101080001F4FF32DFF763F2E97FF09C09095809557
:10109000709561957F4F8F4F9F4FF0683F2E2AE0EC
:1010A00030E0A3010E947909882E861845C0853753
:1010B00031F4232D2F7EB22E2AE030E025C0932D6F
:1010C000997FB92E8F36C1F018F4883579F0B5C004
:1010D000803719F0883721F0B0C0E92FE061BE2ECB
:1010E000B4FE0DC0FB2DF460BF2E09C034FE0AC053
:1010F000292F2660B22E06C028E030E005C020E18E
:1011000030E002C020E132E0F801B7FE07C06081A4
:101110007181828193810C5F1F4F06C06081718154
:1011200080E090E00E5F1F4FA3010E947909882E96
:101130008618FB2DFF773F2E36FE0DC0232D2E7F08
:10114000A22E891458F434FE0BC032FC09C0832D42
:101150008E7EA82E05C0B82CA32C03C0B82C01C0CD
:10116000B92CA4FE0FC0FE01E80DF11D8081803373
:1011700021F49A2D997EA92E09C0A2FE06C0B3942F
:10118000B39404C08A2D867809F0B394A3FC11C0EF
:10119000A0FE06C0B21488F4280C922C9B180EC036
:1011A000B21460F4B60180E290E00E943D09B3946D
:1011B000F7CFB21418F42B1802C0982C212CA4FEDF
:1011C00010C0B60180E390E00E943D09A2FE17C066
:1011D000A1FC03C088E790E002C088E590E0B6017A
:1011E0000CC08A2D867859F0A1FE02C08BE201C0A6
:1011F00080E2A7FC8DE2B60190E00E943D098914CF
:1012000038F4B60180E390E00E943D099A94F7CF4C
:101210008A94F301E80DF11D8081B60190E00E94EF
:101220003D098110F5CF222009F442CEB60180E2BB
:1012300090E00E943D092A94F6CFF60186819781BD
:1012400002C08FEF9FEF2B96E2E10C94F309FC01B3
:101250000590615070400110D8F7809590958E0FE1
:101260009F1F0895FC016150704001900110D8F754
:10127000809590958E0F9F1F08950F931F93CF9386
:10128000DF93FB01238121FD03C08FEF9FEF2CC073
:1012900022FF16C0468157812481358142175307AA
:1012A00044F4A081B1819D012F5F3F4F31832083A2
:1012B0008C93268137812F5F3F4F3783268314C05D
:1012C0008B01EC01FB010084F185E02D0995892B50
:1012D000E1F6D80116968D919C9117970196179675
:1012E0009C938E931697CE01DF91CF911F910F9112
:1012F0000895FA01AA27283051F1203181F1E894AC
:101300006F936E7F6E5F7F4F8F4F9F4FAF4FB1E0F8
:101310003ED0B4E03CD0670F781F891F9A1FA11DF3
:10132000680F791F8A1F911DA11D6A0F711D811DF4
:10133000911DA11D20D009F468943F912AE0269FB9
:1013400011243019305D3193DEF6CF010895462F18
:101350004770405D4193B3E00FD0C9F7F6CF462FF9
:101360004F70405D4A3318F0495D31FD4052419362
:1013700002D0A9F7EACFB4E0A6959795879577951F
:101380006795BA95C9F700976105710508959B01A6
:10139000AC010A2E06945795479537952795BA952F
:1013A000C9F7620F731F841F951FA01D08952F9208
:1013B0003F924F925F926F927F928F929F92AF92E5
:1013C000BF92CF92DF92EF92FF920F931F93CF9332
:1013D000DF93CDB7DEB7CA1BDB0B0FB6F894DEBFC9
:1013E0000FBECDBF09942A88398848885F846E84EF
:1013F0007D848C849B84AA84B984C884DF80EE8039
:10140000FD800C811B81AA81B981CE0FD11D0FB641
:10141000F894DEBF0FBECDBFED010895F894FFCF65
:1014200001000000E90220003C285E5F5E293E0AC0
:10143000000048657265204920616D206F6E63650C
:10144000206D6F72652C20676F696E6720646F77FF
:101450006E20746865206F6E6C7920726F756E6493
:1014600020492776652065766572206B6E6F776EF2
:101470002E2E2E0A00526573756D696E67206F708F
:1014800065726174696F6E2E2E2E0A00506175733D
:10149000696E67206F7065726174696F6E2E2E2E93
:1014A0000A0048657920796F752C20796F75206B5B
:1014B0006E6F77207768617420746F20646F2E20C0
:1014C0003A2D290A00594541482C20646F6E652049
:1014D0006669727374206C61702C206665656C6936
:1014E000672077656C6C2C20676F696E6720666F6C
:1014F00072206C617020322F330A00594541482018
:10150000594541482C20646F6E6520326E64206C12
:1015100061702C206665656C696E672070726F75EE
:10152000642C20676F696E6720666F72206C617033
:1015300020332F330A002046696E616C6C79206677
:10154000696E6973686564202C2049742773206F65
:1015500076657220616E6420646F6E65206E6F77B1
:101560002C20616674657220232564207365636F87
:101570006E64732E205468616E6B7320666F7220E8
:10158000776F726B696E672077697468206D65216B
:10159000203A2D2920492077696C6C20726573658B
:1015A00074206D7973656C6620696E2035207365D3
:1015B000636F6E64732E2054616B65206361726586
:1015C000210A0043757272656E746C792049206738
:1015D0006F20726F756E64202325640A0050617558
:0E15E00073650A006C616C616C612E0A00007C
:00000001FF
